:020000040800F2
:1000000038070020D90100087B140008FF11000800
:10001000791400080D0400087118000800000000A1
:100020000000000000000000000000007F14000835
:100030000F040008000000007D140008811400086F
:10004000F3010008F3010008F3010008F3010008C0
:10005000F3010008F3010008F3010008F3010008B0
:10006000F3010008F3010008F3010008F3010008A0
:10007000F3010008F3010008F3010008F301000890
:10008000F3010008F3010008F3010008F301000880
:10009000F3010008F3010008F3010008F301000870
:1000A000F3010008F3010008F3010008F301000860
:1000B000F3010008F3010008F3010008F301000850
:1000C000F3010008F3010008F3010008F301000840
:1000D000F3010008F3010008F3010008F301000830
:1000E000F3010008F3010008F3010008F301000820
:1000F000F3010008F3010008F3010008F301000810
:10010000F3010008F3010008F3010008F3010008FF
:10011000F3010008F3010008F3010008F3010008EF
:10012000F3010008F3010008F3010008F3010008DF
:10013000F30100080000000000000000F3010008C7
:10014000F3010008F3010008F3010008F3010008BF
:10015000F3010008F3010008F3010008F3010008AF
:10016000F3010008F3010008F3010008F30100089F
:10017000F3010008F3010008F3010008000000008B
:1001800000000000F3010008000000000000000073
:10019000F30100080000000000000000F301000867
:1001A000000000000000000000000000F301000853
:1001B000F3010008F3010008F3010008F30100084F
:1001C000F3010008DFF80CD000F07AF8004800478F
:1001D000491D0008380700200648804706480047A8
:1001E000FEE7FEE7FEE7FEE7FEE7FEE7FEE7FEE7E7
:1001F000FEE7FEE70D150008C50100082DE9F05FD8
:100200000546002092469B46884606468146402485
:100210001BE0284641464746224600F041F8534637
:100220005A46C01A914110D311461846224600F092
:1002300028F82D1A67EB01084F46224601200021BD
:1002400000F01FF817EB00094E41201EA4F1010435
:10025000DFDC484631462A464346BDE8F09FD2B22D
:1002600001E000F8012B491EFBD270470022F6E79F
:1002700010B513460A4604461946FFF7F0FF20461C
:1002800010BD202A04DB203A00FA02F1002070475A
:100290009140C2F1200320FA03F3194390407047C4
:1002A000202A04DB203A21FA02F00021704721FACB
:1002B00002F3D040C2F12002914008431946704732
:1002C000064C074D06E0E06840F0010394E80700A3
:1002D00098471034AC42F6D3FFF778FFF81E0008B9
:1002E000181F0008464910B54A6822F440324A6097
:1002F0004A6843681A434A6001684A6822F4807277
:100300004A6001684A68036942EA03224A60016858
:100310004A6822F040724A6001684A6883681A435A
:100320004A6001688A6822F400628A6001688A680B
:10033000C3681A438A60816A6FF07062D1420168B3
:100340008A6822F070628A6001688A680CD0836AC9
:100350001A438A6001688A6822F040528A60016804
:100360008A68C36A1A4301E022F040528A60016839
:100370008A6822F002028A6001688A68037E42EA83
:1003800043028A6090F82010002901684A680FD063
:1003900042F400624A6001684A6822F460424A609E
:1003A00001684A68174C436A04EB43331A4301E07F
:1003B00022F400624A600168CA6A22F47002CA62CA
:1003C0000168CA6A838B104C04EB03531A43CA6258
:1003D00001688A6822F400728A6001688A6890F86D
:1003E000303042EA43228A6001688A6822F48062DF
:1003F0008A6001688A68406942EA8020886010BD8E
:100400000023014000E0FFFF0000F0FFFEE770471F
:100410007047000078B50024009490F83C20012A31
:1004200019D0012280F83C200A6807230568092AB0
:1004300013D9EE680A3A02EB420293409E43EE6003
:100440000B788A680A3B03EB43039A400368DD6834
:100450002A43DA6010E0022078BD2E6902EB4202E6
:1004600093409E432E610B788A6803EB43039A40C6
:1004700003681D692A431A614A681F23072A13D299
:1004800005686E6B521E02EB820293409E436E63C0
:100490000A8893B20A79521E02EB820293400268E4
:1004A000556B2B43536327E005680D2A12D22E6B40
:1004B000D21F02EB820293409E432E630B790A887F
:1004C000DB1F92B203EB83039A4003681D6B2A4340
:1004D0001A6311E0EE6A0D3A02EB820293409E43EA
:1004E000EE620B790A880D3B92B203EB83039A40CC
:1004F0000368DD6A2A43DA621B4B0568194A9D428C
:100500000AD10D68122D07D1556825F400055560F4
:10051000556845F48005556005689D421DD1134D11
:100520000B68AB4201D0112B17D1536823F4800321
:100530005360536843F4000353600968A9420CD127
:100540000B490C4A0968B1FBF2F101EB810149004A
:1005500000E0491E00910029FBD180F83C400020BA
:1005600078BD00000023014000200140120000106F
:100570001400002040420F000068C06C704770B546
:1005800004004FF0000503D0206C002610B107E0F6
:10059000012070BD204600F01DF8666484F83C60C0
:1005A000206CC00610D4206C20F4885040F002006B
:1005B00020642046FFF796FE6664206C20F002005F
:1005C00040F00100206400E0012584F83C602846EA
:1005D00070BD000070B586B0044614216846FFF770
:1005E00045FE2A49284E25680023284A1439032449
:1005F0002748B54211D1156845F480751560126819
:1006000002F4807205920A6842F001020A600968E9
:1006100001F001010591402113E01E4EB54219D1B0
:10062000156845F400751560126802F400720592B1
:100630000A6842F001020A60096801F001010591AF
:100640008021CDE9001402934FEA0D0100F0F0F88B
:1006500006B070BD10488542FAD1106840F4806041
:100660001060106800F480600590086840F0040095
:1006700008600868694600F0040005900120CDE993
:10068000000402930548E1E700200140443802409D
:100690000000024000210140002201400008024009
:1006A0002DE9F041044600680D4681684FF00007CF
:1006B00049050BD58068C00508D5206C40F02000A6
:1006C000206484F83C700120BDE8F08100F088F9D6
:1006D00006460FE0681C0DD025B100F081F9801BA3
:1006E000A84207D9206C40F00400206484F83C70D4
:1006F0000320E9E7206800688007EBD521686FF0E8
:1007000012000860206C40F400702064206881684A
:1007100011F0405F13D1217E89B9C16A11F4700FC5
:1007200002D0806840050AD4206C20F480702064D8
:10073000206CC00403D4206C40F001002064002031
:10074000C2E7000018B50021009190F83C20012A72
:1007500007D0012280F83C2002689368DB0702D0B2
:1007600011E0022018BD936843F0010393602A4A08
:100770002A4B1268B2FBF3F202EB420200E0521E77
:100780000092002AFBD102689368DB0741D0036C1A
:1007900040F20164A34343F48073036453685B0530
:1007A00005D5036C23F4005343F480530364036CB6
:1007B000DB0404D5436C23F00603436400E041648A
:1007C00080F83C1016496FF02203136049680068F6
:1007D000CA06144906D088421BD1816811F0405FD7
:1007E00013D016E08842F8D00F4A904203D1D1F8D6
:1007F0000423D206F1D00D4A90420AD1D1F8041355
:1008000001F01F011029E8D303E0816841F0804125
:100810008160002018BD00001400002040420F003D
:10082000002301400020014000210140002201403E
:100830002DE9F84FDFF874B100224FF001084FF0B6
:10084000030A4FF00F090BF1040E00BF0B6808FA02
:1008500002F42340A3426ED14D68022D01D0122D27
:100860000ED1D50800EB850CDCF820505607F70EAA
:1008700009FA07F6B5430E69BE402E43CCF8206056
:10088000066855000F790AFA05FC07F0030726EA07
:100890000C06AF40374307604E68012E05D0022E8C
:1008A00003D0112E01D0122E0ED18668CF6826EA11
:1008B0000C06AF40374387604668A6430C79C4F303
:1008C0000014944034434460C4688E6824EA0C04E5
:1008D000AE402643C6604C68E40060D5344C2568C1
:1008E00045F480452560246822F0030504F4804423
:1008F0000094304C2E19D6F8084895072F0F09FAA6
:1009000007F5AC432C4DA84201D100251FE02B4D2B
:10091000A84201D101251AE0294DA84201D10225A2
:1009200015E0284DA84201D1032510E0264DA8422C
:1009300002D104250BE032E0244DA84201D1052567
:1009400005E0234DA84201D1062500E00725BD4062
:100950002543C6F80858DBF800405D464E689C43C6
:10096000F60300D51C432C60DEF8004075464E6847
:100970009C43B60300D51C432C600C4D08352C68F5
:100980004E689C43F60200D51C432C60074D0C3585
:100990002C684E689C43B60200D51C432C60521C48
:1009A000102AFFF453AFBDE8F88F0000003C01406F
:1009B0004438024000300140000002400004024080
:1009C00000080240000C02400010024000140240E7
:1009D000001802400AB1816170470904FBE700007A
:1009E00001488068704700000800002002488168C4
:1009F0000278114481607047080000200B4810B550
:100A0000016841F400710160016841F48061016096
:100A1000016841F480710160032000F063F8002058
:100A200000F006F800F024F8002010BD003C024061
:100A300070B50D4D04464FF47A712878B1FBF0F093
:100A40000A490968B1FBF0F000F002FB48B9102C2C
:100A500007D200222146501E00F024F800206C60CE
:100A600070BD012070BD00000800002014000020AF
:100A70000B4882B0016841F480410160006800F4D5
:100A8000804000900648001F016841F080510160DD
:100A9000006800F080500090072002B000F022B8FB
:100AA00044380240F0B40E4B1B680C46C3F30223DB
:100AB000C3F10705042D00D90425191D072901D20A
:100AC000002300E0DB1E012606FA05F1491E214045
:100AD00099409E40761E16403143F0BC00F0DEBEC9
:100AE0000CED00E0064900F0070208684FF6FF032E
:100AF000184040EA0220034A104308607047000093
:100B00000CED00E00000FA052DE9F0470E46050067
:100B100065D0DFF81481D8F80000F7B200F00F00BC
:100B2000B04207D288F80070D8F8000000F00F003B
:100B3000B04254D128683D4C810712D5400703D5F7
:100B4000206840F4E05020602878000703D5206832
:100B500040F4604020602068A96820F0F00008435D
:100B600020602878C0072DD03049686808390128EE
:100B700012D0022813D0032811D009688907002950
:100B80002DDA216821F0030101432160FFF728FFDE
:100B9000814641F2883A0EE009688903EFE7096867
:100BA0008901ECE7FFF71CFFA0EB0901514502D9D1
:100BB0000320BDE8F0872068696800F00C00B0EB06
:100BC000810FEFD1D8F80010404601F00F01B1427B
:100BD00007D90770006800F00F00B04201D0012073
:100BE000E7E72878400705D52068E96820F4E05059
:100BF000084320602878000706D52068296920F47A
:100C0000604040EAC100206000F036F82168084AE0
:100C1000C1F30311515CC840064908600020FFF78A
:100C200007FF0020C5E70000003C024008380240F2
:100C3000E01E000814000020044805490068096807
:100C4000044AC1F38221515CC8407047140000205F
:100C500008380240F01E0008044805490068096889
:100C6000044AC1F34231515CC8407047140000206F
:100C700008380240F01E0008224810B5006810F045
:100C80000C02214815D04110042A11D01D4C241FFC
:100C9000082A0FD00C2A0CD12268236802F03F02E8
:100CA0005B0221D52068C0F38810A0FB010120E081
:100CB000084610BD2268236802F03F025B0205D59A
:100CC0002068C0F38810A0FB010104E02168C1F393
:100CD0008811A1FB00010023FFF790FA2168C1F3FE
:100CE0000141491C49000AE02168C1F38811A1FBB8
:100CF00000010023FFF782FA2168C1F30271B0FB03
:100D0000F1F010BD083802400024F4002DE9F84F3E
:100D10000546DFF828B30078ABF10407C007A7F158
:100D2000040451D0DBF800105846C1F381010129B9
:100D30000FD00168C1F38101022902D1396849024B
:100D400007D40068C0F38100032809D13868400245
:100D500006D52068800337D56868002872D033E054
:100D60006868B0F5803F10D0B0F5A02F206810D093
:100D700020F480302060206820F4802020606868A3
:100D8000A8B1FFF72DFE06460DE0206840F4803044
:100D9000F4E740F480202060F7E700BFFFF720FE73
:100DA000801B642878D820688003F7D50CE0FFF713
:100DB00017FE064605E000BFFFF712FE801B642801
:100DC000F0D820688003F7D42878DFF87492800781
:100DD0004FF0000A46D5DBF80010584611F00C0F12
:100DE0000FD00168C1F38101022902D1396849029B
:100DF00007D50068C0F38100032809D13868400294
:100E000006D42068800715D5E86801281AD111E0BA
:100E1000E868C0B10120C9F80000FFF7E1FD06460F
:100E200005E000BFFFF7DCFD801B0228BAD8206870
:100E30008007F7D52068296920F0F80040EAC10052
:100E400020600FE0F7E0C9F800A0FFF7C9FD0646F3
:100E500005E000BFFFF7C4FD801B02281CD82068F6
:100E60008007F7D42878000727D5DFF8D0817548A8
:100E7000696908F16C0881B101210160FFF7B0FDDB
:100E8000064604E0FFF7ACFD801B022804D8D8F822
:100E900000008007F6D510E089E0C0F800A0FFF759
:100EA0009FFD064605E000BFFFF79AFD801B022864
:100EB0007DD8D8F800008007F6D42878400769D597
:100EC0005E484FF0000838300068C0000BD45B4823
:100ED0003830016841F08051016000684FF001082E
:100EE00000F080500090584E3068C00511D4306832
:100EF00040F480703060FFF773FD009006E000BFA3
:100F0000FFF76EFD0099401A022850D83068C005DE
:100F1000F6D54A4EA868683601280FD005283068F3
:100F200010D020F001003060306820F00400306004
:100F3000A868B8B1FFF754FD00900FE0306840F0AA
:100F40000100F4E740F004003060F7E7FFF748FDE8
:100F50000099411A41F28830814264D83068800794
:100F6000F4D50EE0FFF73CFD009007E0FFF738FDF9
:100F70000099411A41F28830814254D83068800784
:100F8000F4D4B8F1000F05D02C483830016821F0B6
:100F900080510160A869A8B3DBF80010C1F381019A
:100FA000022948D00228C9F860A005D000E03AE044
:100FB000FFF716FD054639E0FFF712FD064604E08F
:100FC000FFF70EFD801B02282DD820688001F7D482
:100FD000F5E907010843E9681C4A490802EB0141A9
:100FE000AA6841EA82110843297C40EA0160297D10
:100FF00040EA017038600120C9F86000FFF7F0FC9A
:10100000054606E015E000BFFFF7EAFC401B02289A
:1010100009D820688001F7D50BE000BFFFF7E0FC9E
:10102000401B022802D90320BDE8F88F2068800108
:10103000F4D40020F8E70120F6E700000838024069
:1010400000004742800E4742007000400000FFFF52
:1010500010B5401EB0F1807F01D3012010BD4FF0CC
:10106000E02460610F21601700F018FC0020A061EF
:1010700007202061002010BD70B5040004D094F852
:101080003900002510B106E0012070BD84F8385009
:10109000204600F023F8242084F839002068C16835
:1010A00021F40051C160204600F05AFA206801691D
:1010B00021F4904101612068416921F02A014161D8
:1010C0002068C16841F40051C160E563202084F8C4
:1010D000390084F83A00002070BD000010B586B0D9
:1010E000044614216846FFF7C1F813492068884276
:1010F0001FD11248016841F400210160006800F42A
:10110000002005900D481038016841F00101016090
:101110000068022100F0010005900320CDE90001E4
:101120000121CDE902100820049069460448FFF728
:101130007FFB06B010BD0000004C0040403802406C
:10114000000002402DE9F843044690F839001F469C
:1011500016460D46202850D1A5B19EB194F838000E
:1011600001284AD0012084F838004FF00008C4F864
:101170003C80212084F83900FFF732FCA6848146A8
:10118000E68426E00120BDE8F883E08C401EE08480
:10119000A0684B46B0F5805F4FF000024FF0800131
:1011A0002046009703D000F031FBE8B90DE000F0D5
:1011B0002DFBC8B928882168C0F308004860206961
:1011C00008B16D1C05E0AD1C03E0216815F8010BAA
:1011D0004860E08C0028D8D14B46002240212046B0
:1011E000009700F013FB08B10320CCE7202084F81F
:1011F000390084F838800020C5E70220C3E7FEE705
:101200007FB5002415480094019402941249039478
:1012100001604FF48031C0E901140461047680F864
:1012200020400F49C0E90A140125C561C46080F857
:1012300030404561FFF7A3F908B1FFF7E9F8062050
:10124000CDE90005694602940448FFF7E3F8002859
:1012500001D0FFF7DDF87FBD002001402000002015
:101260000100000F7FB500241548009401940294FA
:101270001249039401604FF48031C0E90114046104
:10128000047680F820400F49C0E90A140125C561A1
:10129000C46080F830404561FFF771F908B1FFF78D
:1012A000B7F80720CDE90005694602940448FFF726
:1012B000B1F8002801D0FFF7ABF87FBD0021014055
:1012C000680000200100000F7FB50024154800943D
:1012D000019402941249039401604FF48031C0E9F3
:1012E00001140461047680F820400F49C0E90A1413
:1012F0000125C561C46080F830404561FFF73FF9C2
:1013000008B1FFF785F80A20CDE900056946029487
:101310000448FFF77FF8002801D0FFF779F87FBD78
:1013200000220140B00000200100000FF0B587B09E
:1013300014216846FEF79AFF3B480024016841F0FB
:1013400004010160016801F004010591016841F0A8
:1013500080010160016801F080010591016841F0A0
:1013600001010160016801F001010591016841F08E
:1013700002010160016801F002010591016841F07C
:10138000080101600068294E00F008000590002265
:1013900020213046FFF71EFB4FF4005000902448F8
:1013A000CDE90104234F69463846FFF741FA41F67B
:1013B000FE700325CDE90005694602943846FFF723
:1013C00037FA0C20009001A9022081E831000720A3
:1013D000049069463046FFF72BFA49F61070CDE9C4
:1013E0000005694602943046FFF722FA202000905B
:1013F0000120CDE90104694630460394FFF718FA4D
:101400004FF2F770CDE90005694602940A48FFF7EC
:101410000FFA0420CDE90005694602940748FFF75A
:1014200007FA07B0F0BD000030380240000002406B
:10143000000021100008024000040240000C02409D
:101440000C4810B50A4901604FF4E13141600021B8
:1014500081600C22C160C0E904128161C161FFF7A3
:101460000BFE002803D0BDE81040FEF7D1BF10BD31
:10147000004C0040F8000020FEE7704770477047BE
:10148000FFF7B4BA30B593B034216846FEF7EEFEEC
:1014900014210DA8FEF7EAFE1A480025016841F064
:1014A00080510160006800F0805012901648016879
:1014B00021F4404141F4804101600068022400F4BD
:1014C0004040129001200390102000940694049054
:1014D000CDE907504FF4A87009900420CDE90A0423
:1014E00068460C94FFF712FC0DA90F2081E831002B
:1014F000E002CDE9100502210DA8FFF705FB13B0AE
:1015000030BD0000403802400070004010480168C3
:1015100041F4700101600F48016841F00101016070
:101520000C4A00210832116002680B4B1A4002601D
:10153000031D0A4A1A60026822F4802202600548EC
:101540000C3001600249580680390860704700007D
:1015500088ED00E000380240FFFFF6FE1030002466
:101560002DE9F041044600680169E26821F4405128
:10157000114301612169A068E2690843616911436F
:1015800022680843D16849F20C6399430143D16052
:1015900020684169A26921F4407111434161E26907
:1015A0006425B2F5004F9748974922684FF03208FA
:1015B0003FD08A4201D082427CD1FFF74DFB00EB45
:1015C000C00101EB001061688900B0FBF1F6FFF784
:1015D00043FB00EBC00101EB001061688900B0FB28
:1015E000F1F0B0FBF5F06FF01801484306EB800115
:1015F00008EB0110B0FBF5F000F0F006FFF72CFB54
:1016000000EBC00101EB001061688900B0FBF1F054
:10161000B0FBF5F006EB0016FFF71EFB00EBC00178
:1016200001EB001061688900B0FBF1F7FFF714FBD4
:10163000D2E08A4201D082423DD1FFF70DFB00EBA0
:10164000C00101EB001061684900B0FBF1F0B0FB94
:10165000F5F00601FFF700FB00EBC00101EB001005
:1016600061684900B0FBF1F7FFF7F6FA00EBC00143
:1016700001EB001061684900B0FBF1F0B0FBF5F040
:101680006FF01801484307EB800108EBC100B0FB85
:10169000F5F000F0F80006EB4006FFF7DDFA00EB8E
:1016A000C00101EB001061684900B0FBF1F7FFF7E2
:1016B000D3FA3CE055E0FFF7BFFA00EBC00101EBC5
:1016C000001061684900B0FBF1F0B0FBF5F00601D5
:1016D000FFF7B2FA00EBC00101EB001061684900AE
:1016E000B0FBF1F7FFF7A8FA00EBC00101EB001027
:1016F00061684900B0FBF1F0B0FBF5F06FF0180144
:10170000484307EB800108EBC100B0FBF5F000F0A7
:10171000F80006EB4006FFF78FFA00EBC00101EB83
:10172000001061684900B0FBF1F7FFF785FA00EBA4
:10173000C00101EB001061684900B0FBF1F0B0FBA3
:10174000F5F06FF01801484307EB800108EBC1008A
:10175000B0FBF5F000F00700216830448860BDE878
:10176000F081FFF769FA00EBC00101EB001061683E
:101770008900B0FBF1F6FFF75FFA00EBC00101EB67
:10178000001061688900B0FBF1F0B0FBF5F06FF07C
:101790001801484306EB800108EB0110B0FBF5F09F
:1017A00000F0F006FFF748FA00EBC00101EB001073
:1017B00061688900B0FBF1F0B0FBF5F006EB0016B4
:1017C000FFF73AFA00EBC00101EB001061688900F5
:1017D000B0FBF1F7FFF730FA00EBC00101EB0010AE
:1017E00061688900B0FBF1F0B0FBF5F06FF0180113
:1017F000484307EB800108EB0110B0FBF5F000F067
:101800000F00A9E700140140001001402DE9F0414C
:10181000984617460E460446069D1DE0681C1BD0E0
:101820002DB1FFF7DDF8A0EB0800A84214D920681D
:10183000C16821F4D071C1602068416921F00101C3
:101840004161202084F8390084F83A00002084F8AF
:1018500038000320BDE8F0812068006836EA000007
:1018600004D00020B842D9D00020F3E70120F9E7E6
:10187000FEE700000FB4084B10B504A902AA0398B4
:1018800000F02CF8044602A9002000F058FA204687
:1018900010BC5DF814FB00003F1D00080907090E8D
:1018A000002804DB00F1E02080F80014704700F00D
:1018B0000F0000F1E02080F8141D704702E008C816
:1018C000121F08C1002AFAD170477047002001E0BA
:1018D00001C1121F002AFBD1704700002DE9FF4F04
:1018E0008DB00F460546002606E025280BD0DDE921
:1018F0000F1290476D1C761C28780028F5D111B086
:101900003046BDE8F08F0024A246A1460122EC49F2
:1019100000E0044315F8013F203B02FA03F00842BF
:10192000F7D128782A2810D06FF02F022878A0F15C
:101930003001092914D80AEB8A0102EB410144F075
:10194000020400EB010A6D1CF0E701CF5FEA000A18
:1019500003D544F40054CAF1000A44F002046D1C9B
:1019600028782E2817D115F8010F44F004042A28EE
:101970000ED06FF02F022878A0F1300109290AD883
:1019800009EB890102EB410100EB01096D1CF2E753
:1019900057F8049B6D1C28786C280FD006DC4C2867
:1019A00017D068280DD06A2814D104E0742810D00C
:1019B0007A280FD10DE044F400140AE044F48014B6
:1019C00001E044F440146978814202D104F58014A6
:1019D0006D1C6D1C2A786E2A1FD00CDC632A31D056
:1019E00004DC002A8BD0582A11D1A3E0642A68D0E5
:1019F000692A0CD165E0732A2ED004DC6F2A73D0DB
:101A0000702A04D19BE0752A6FD0782A6ED01046D8
:101A1000DDE90F129047761C50E1C4F30250022812
:101A200006D0032809D0042801CF09D0066045E17B
:101A300001CFF117C0E9006140E101CF06803DE12F
:101A400006703BE117F8040B8DF8000000208DF8BC
:101A50000100EB46012003E057F804BB4FF0FF30D4
:101A600061074FF0000102D40DE008F10101884642
:101A700049450FDA8045F8DB1BF808100029F4D13E
:101A800008E008F1010188468142FADB1BF80810E2
:101A90000029F6D1DDE90F23AAEB08008146214693
:101AA00000F036F9304400EB080604E0DDE90F12DF
:101AB0001BF8010B9047B8F10108F7D221464846C0
:101AC000F7E00A21C4F302534FF0000B0891022BF8
:101AD00004D001CFC117032B09D00AE0FF1D27F066
:101AE0000707F7E8020108E032E01FE020E000B25B
:101AF000C117042B01D140B2C117031E71F10003BD
:101B000007DA4FF0000CD0EB0C006CEB01012D2339
:101B100002E0230504D52B238DF82430012303E0B4
:101B2000E30701D02023F7E7984658E00A2110E0A8
:101B300010210EE010204FF0000B08900CE0102157
:101B40004FF0000B44F004044FF00809089103E043
:101B500008214FF0000B0891C4F30253022B04D06C
:101B600001CF0021032B06D006E0FF1D27F0070759
:101B7000F7E8020103E080B2042B00D1C0B24FF0BD
:101B8000000823072BD5702A07D0DDF820C08CF081
:101B9000100C5CEA0B0C05D00EE040238DF82430CD
:101BA000012308E050EA010306D030238DF82430E9
:101BB0008DF8252002239846DDF820C08CF0080C13
:101BC0005CEA0B0C0BD150EA010301D1630706D587
:101BD00030238DF824304FF00108A9F10109582A6B
:101BE00004D038A20B9208AA0A920BE03AA2F9E7B5
:101BF0005B46089AFEF702FB0B9B9B5C0A9A521EFF
:101C00000A92137050EA0102F2D10A98ADEB00007B
:101C100000F1200B600702D524F4803401E04FF07E
:101C20000109D94502DDA9EB0B0000E0002000EB23
:101C30000B0141440890AAEB010AE00306D4DDE958
:101C40000F232146504600F063F806444FF0000988
:101C500008E009A911F80900DDE90F12904709F120
:101C60000109761CC145F4DBE0030CD5DDE90F2347
:101C70002146504600F04CF8064404E0DDE90F121E
:101C800030209047761C0899481E08900029F5DC02
:101C900008E00A980A990078491C0A91DDE90F12B8
:101CA0009047761CBBF10001ABF1010BF1DC214642
:101CB0005046DDE90F2300F019F806446D1C1BE6C1
:101CC0000928010030313233343536373839616212
:101CD00063646566000000003031323334353637D6
:101CE0003839414243444546000000002DE9F041A7
:101CF000044600251E461746880404D405E03946EC
:101D00002020B0476D1C641EF9D52846BDE8F0813F
:101D10002DE9F041044600251E469046C80301D532
:101D2000302700E02027880404D505E041463846E6
:101D3000B0476D1C641EF9D52846BDE8F0810A68DD
:101D4000531C0B6010707047FEF758FEFFF79AFBAC
:101D5000FFF7ECFAFFF774FBFFF752FAFFF782FA8E
:101D6000FFF7B2FA062000F047F8002606601E4C86
:101D70000546868020780128FCD11C48FEF7E2FC4D
:101D800064211A48FEF78CFC1948FEF7DBFC64213D
:101D90001748FEF785FC1748FEF7D4FC6421154868
:101DA000FEF77EFC1148FEF7E7FB60801048FEF767
:101DB000E3FBA0800F48FEF7DFFBE080A078002364
:101DC0008000287021791A46084480002870A17983
:101DD0000844800028700421284600F043F826704B
:101DE0002E60AE80C6E7000000000020200000202A
:101DF00068000020B0000020F0B50B30154D20F039
:101E000007010024144A0FE003688B420BD38B4276
:101E100005D95E1A43184768C3E9006700E04368C4
:101E2000136002C004E0021D10680028ECD12046B7
:101E3000002802D1286808B10020F0BD064A0748F2
:101E40001060074A121A22F00702C0E9002401209C
:101E50002860D7E71C000020180000203C0100206B
:101E6000380300202DE9F04190B00D4607461E468C
:101E700090461C2101A8FEF7F9F9002406E001AA0A
:101E80003B5D0EA11046FFF7F5FC641CAC42F6DB8F
:101E900008F1010301AA0BA108A80096FFF7EAFCCC
:101EA000112000EB450082B24FF4FA6308A90B48F9
:101EB000FFF748F910B0BDE8F08100002573253028
:101EC0003278000053656E645F6672616D6520252F
:101ED000732025642025640A0D000000F80000200E
:101EE00000000000000000000102030406070809CA
:101EF0000000000001020304181F00080000002079
:101F000020000000BC180008381F00082000002036
:101F100018070000CC1800080000000000000000B6
:101F20000100000010000000000000000024F40088
:081F30000000000000000000A9
:04000005080001C529
:00000001FF
